:100000000C94230E0C94500E0C94500E0C94500E25
:100010000C94500E0C94500E0C94500E0C94500EE8
:100020000C94500E0C94500E0C94500E0C94500ED8
:100030000C94500E0C94A6CC0C94500E0C94500EB4
:100040000C94500E0C94737E0C94500E0C94500E25
:100050000C94500E0C94500E0C945B860C94F1C8CA
:100060000C94500E0C94602C0C94500E0C94500E6A
:100070000C94500E0C94500E0C94500E0C94500E88
:100080000C94500E0C94500E0C94500E0C94500E78
:100090000C94500E0C94500E0C94500E0C9478C589
:1000A0000C94500E0C94500E0C94500E0C94500E58
:1000B0000C94500E0C94500E0C94500E0C94500E48
:1000C0000C94500E0C94500E0C94500E0C94500E38
:1000D0000C94500E0C94500E0C94500E0C94500E28
:1000E0000C94500E084AD73B3BCE016E84BCBFFD3A
:1000F000C12F3D6C74319ABD56833DDA3D00C77FF8
:1001000011BED9E4BB4C3E916BAAAABE0000008090
:100110003F05A84CCDB2D44EB93836A9020C50B91F
:10012000918688083CA6AAAA2ABE000000803F4DFE
:10013000383420582059205A2045006563686F3AAA
:100140000043616E6E6F7420656E74657220737506
:10015000626469723A20004D3234004D32332025FA
:1001600073006175746F25692E67004572726F7236
:100170003A006572726F722077726974696E6720D7
:10018000746F2066696C65004E6F74205344207054
:1001900072696E74696E67002F0053442070726933
:1001A0006E74696E67206279746520002E00446564
:1001B0006C6574696F6E206661696C65642C20469D
:1001C000696C653A200046696C652064656C6574ED
:1001D00065643A002E006F70656E206661696C651B
:1001E000642C2046696C653A200057726974696E08
:1001F0006720746F2066696C653A20002E006F706E
:10020000656E206661696C65642C2046696C653A90
:1002100020002E006F70656E206661696C65642C2D
:100220002046696C653A200046696C652073656CF0
:100230006563746564002053697A653A20004669F5
:100240006C65206F70656E65643A20002E006F70DB
:10025000656E206661696C65642C2046696C653A40
:1002600020004E6F772066726573682066696C6542
:100270003A20004E6F7720646F696E672066696C64
:10028000653A20002220706F730022207061726531
:100290006E743A2200535542524F5554494E4520F0
:1002A00043414C4C207461726765743A2200747249
:1002B00079696E6720746F2063616C6C207375625E
:1002C0002D67636F64652066696C65732077697458
:1002D0006820746F6F206D616E79206C6576656C37
:1002E000732E204D4158206C6576656C2069733AF9
:1002F0000053442063617264206F6B006F70656E01
:10030000526F6F74206661696C656400766F6C75FE
:100310006D652E696E6974206661696C6564005351
:100320004420696E6974206661696C006563686F5A
:100330003A0048617264636F646564204465666175
:10034000756C742053657474696E6773204C6F61AB
:100350006465640053746F726564207365747469B6
:100360006E677320726574726965766564002044F7
:10037000002049002020204D3330312050005049CA
:10038000442073657474696E67733A0020530020CB
:10039000520020204D363635204C0044656C746187
:1003A0002073657474696E67733A204C3D64656CA4
:1003B00074615F646961676F6E616C5F726F642CFA
:1003C00020523D64656C74615F7261646975732C61
:1003D00020533D64656C74615F7365676D656E7411
:1003E000735F7065725F7365636F6E6400205A009F
:1003F00020590020204D363636205800456E647353
:10040000746F702061646A757374656D656E7420B5
:10041000286D6D293A00205A0020590020204D32C5
:100420003036205800486F6D65206F6666736574BE
:1004300020286D6D293A00204500205A00205800E0
:1004400020420020540020204D32303520530041FE
:100450006476616E636564207661726961626C6561
:10046000733A20533D4D696E206665656472617410
:100470006520286D6D2F73292C20543D4D696E2009
:1004800074726176656C206665656472617465205E
:10049000286D6D2F73292C20423D6D696E696D7535
:1004A0006D207365676D656E742074696D652028B5
:1004B0006D73292C20583D6D6178696D756D2058DC
:1004C00059206A65726B20286D6D2F73292C2020AE
:1004D0005A3D6D6178696D756D205A206A65726B41
:1004E00020286D6D2F73292C2020453D6D61786982
:1004F0006D756D2045206A65726B20286D6D2F73B8
:10050000290020540020204D323034205300416314
:1005100063656C65726174696F6E3A20533D616307
:1005200063656C65726174696F6E2C20543D7265F1
:10053000747261637420616363656C657261746970
:100540006F6E00204500205A0020590020204D32B7
:1005500030312058004D6178696D756D20416363BD
:10056000656C65726174696F6E20286D6D2F7332D2
:10057000293A00204500205A0020590020204D3201
:1005800030332058004D6178696D756D2066656562
:1005900064726174657320286D6D2F73293A002091
:1005A0004500205A0020590020204D3932205800A3
:1005B00053746570732070657220756E69743A00AB
:1005C00053657474696E67732053746F7265640049
:1005D0006563686F3A004572726F723A0053544F08
:1005E000505045442E20005072696E74657220731D
:1005F000746F707065642064756520746F20657217
:10060000726F72732E204669782074686520657257
:10061000726F7220616E6420757365204D393939AF
:1006200020746F20726573746172742E2028546573
:100630006D7065726174757265206973207265737F
:1006400065742E2053657420697420616674657228
:100650002072657374617274696E6729004B494C2E
:100660004C45442E20005072696E7465722068619A
:100670006C7465642E206B696C6C28292063616C36
:100680006C656421006F6B00526573656E643A207F
:10069000002200556E6B6E6F776E20636F6D6D611B
:1006A0006E643A2022004368616E67652066696C5B
:1006B000616D656E74007A5F6D61783A2000795FD4
:1006C0006D61783A2000785F6D61783A2000205A99
:1006D0003A0020593A0020436F756E7420583A2032
:1006E0000020453A00205A3A0020593A00583A0072
:1006F0004649524D574152455F4E414D453A4D6135
:10070000726C696E2056313B20537072696E74654D
:10071000722F6772626C206D617368757020666FEE
:10072000722067656E36204649524D574152455FEB
:1007300055524C3A68747470733A2F2F6769746815
:1007400075622E636F6D2F4572696B5A616C6D2FE8
:100750004D61726C696E2F2050524F544F434F4C75
:100760005F56455253494F4E3A312E30204D41434A
:1007700048494E455F545950453A42434E334452DE
:100780002045585452554445525F434F554E543AB4
:100790003120555549443A30303030303030302DEA
:1007A000303030302D303030302D303030302D3052
:1007B00030303030303030303030300A0042434E4C
:1007C000334452204F66662E0042434E334452203B
:1007D00072656164792E0042656420646F6E652ED7
:1007E0000020423A0020453A00543A004265642015
:1007F00048656174696E672E0048656174696E674B
:1008000020646F6E652E0020573A0020453A005450
:100810003A0048656174696E672E2E2E00204240B2
:100820003A0020403A00202F003A00205400202FA8
:100830000020423A00202F006F6B20543A002569B7
:10084000206D696E2C2025692073656300456E64F8
:100850002066696C65206C69737400426567696E17
:100860002066696C65206C697374004E6F206D6F33
:1008700076652E00526573756D696E6720707269BA
:100880006E74005761697420666F722075736572AB
:100890002E2E2E00536C6565702E2E2E0001010148
:1008A00000002A4300002A4300804D430000A0407E
:1008B0000000A0400000A040000000000000000078
:1008C00000804D430000AAC20000AAC20000000040
:1008D0000000AA420000AA4200804D43256920681A
:1008E0006F757273202569206D696E75746573006C
:1008F000446F6E65207072696E74696E67206669F8
:100900006C650053544F505045442E20005072697E
:100910006E7465722073746F7070656420647565A1
:1009200020746F206572726F72732E204669782072
:10093000746865206572726F7220616E64207573D1
:1009400065204D39393920746F2072657374617276
:10095000742E202854656D706572617475726520FF
:1009600069732072657365742E20536574206974F1
:100970002061667465722072657374617274696E49
:100980006729006F6B004E6F204C696E65204E75B5
:100990006D626572207769746820636865636B7344
:1009A000756D2C204C617374204C696E653A200083
:1009B0004E6F20436865636B73756D20776974684B
:1009C000206C696E65206E756D6265722C204C61BD
:1009D0007374204C696E653A2000636865636B73BD
:1009E000756D206D69736D617463682C204C617343
:1009F00074204C696E653A20004C696E65204E7516
:100A00006D626572206973206E6F74204C6173741F
:100A1000204C696E65204E756D6265722B312C20FD
:100A20004C617374204C696E653A20004D31313051
:100A300000446F6E6520736176696E672066696C2D
:100A4000652E006F6B004D32390047323800202090
:100A5000506C616E6E65724275666665724279743D
:100A600065733A20002046726565204D656D6F7292
:100A7000793A20004A616E2033302032303135001F
:100A8000436F6D70696C65643A200028526570523E
:100A9000617042434E2C2042434E3344525F7631C4
:100AA0002900207C20417574686F723A20004A61E9
:100AB0006E20333020323031352031313A35343AFE
:100AC000323700204C617374205570646174656422
:100AD0003A2000312E302E30004D61726C696E006C
:100AE00020536F6674776172652052657365740078
:100AF000205761746368646F672052657365740082
:100B00002042726F776E206F757420526573657422
:100B1000002045787465726E616C2052657365744F
:100B200000506F77657255700073746172740022A3
:100B300000656E717565696E672022002200656E22
:100B4000717565696E672022006563686F3A0020E1
:100B5000746F6F206C6F6E6720657874727573693F
:100B60006F6E2070726576656E7465640020636FC9
:100B70006C6420657874727573696F6E207072652D
:100B800076656E746564007C3C3E5E2B3D3F2F5B5A
:100B90005D3B2C2A225C0045303A20005A3A200066
:100BA000593A2000583A20004D53312C4D533220F1
:100BB00050696E730A0024F404D9201BC40C5C0E27
:100BC0009804C4095F0265077101F405F900FB048C
:100BD000B30048048700C1036900580355000303AC
:100BE0004500BE023A008402310053022A00290265
:100BF000250004022000E4011C00C8011900AF0117
:100C000017009801140084011300710110006101A4
:100C1000100051010E0043010D0036010B002B01A5
:100C20000B0020010B00150109000C010900030154
:100C30000800FB000800F3000800EB000700E400D8
:100C40000600DE000600D8000600D2000600CC0038
:100C50000500C7000500C2000500BD000400B90082
:100C60000400B5000400B1000400AD000400A900B8
:100C70000400A5000300A20003009F0004009B00E5
:100C80000300980003009500020093000300900009
:100C900003008D0002008B00030088000200860024
:100CA000020084000300810002007F0002007D003A
:100CB00002007B000200790002007700010076004C
:100CC00002007400020072000100710002006F0057
:100CD00002006D0001006C0002006A000100690062
:100CE0000200670001006600010065000100640069
:100CF00002006200010061000100600001005F006D
:100D000002005D0001005C0001005B0001005A0070
:100D10000100590001005800010057000100560071
:100D20000100550001005400010053000000530071
:100D300001005200010051000100500001004F006D
:100D400001004E0000004E0001004D0001004C006B
:100D500001004B0000004B0001004A000100490067
:100D60000100480000004800010047000100460063
:100D7000000046000100450000004500010044005D
:100D80000100430000004300010042000000420057
:100D900001004100000041000100400001003F004F
:100DA00000003F0001003E0000003E0001003D0049
:100DB00000003D0001003C0000003C0000003C0041
:100DC00001003B0000003B0001003A0000003A0037
:100DD000010039000000390001003800000038002F
:100DE0000000380001003700000037000100360025
:100DF000000036000000360001003500000035001C
:100E00000000350001003400000034000000340010
:100E10000100330000003300000033000100320005
:100E200000003200000032000100310000003100FB
:100E300000003100010030000000300000003000F0
:100E400001002F0000002F0000002F0000002F00E5
:100E500001002E0000002E0000002E0001002D00D9
:100E600000002D0000002D0000002D0001002C00CE
:100E700000002C0000002C0000002C0001002B00C2
:100E800000002B0000002B0000002B0001002A00B6
:100E900000002A0000002A0000002A0001002900AA
:100EA000000029000000290000002900000029009E
:100EB0000100280000002800000028000000280091
:100EC0000000280001002700000027000000270084
:100ED0000000270000002700010026000000260077
:100EE000000026000000260000002600010025006A
:100EF000000025000000250000002500000025005E
:100F0000000025000100240000002400000024004F
:100F10000000240000002400010023000000230042
:100F20000000230000002300000023000000230035
:100F30000000230001002200000022000000220027
:100F40000000220000002200000022000100210019
:100F5000000021000000210000002100000021000D
:100F600000002100000021000100200000002000FE
:100F700000002000000020000000200000002000F1
:100F8000000020000000200001001F0000001F00E2
:100F900000001F0000001F0000001F0000001F00D5
:100FA00000001F0001001E0000001E0000001E00C7
:100FB00000001E00000024F4D43050C38E20C2A2D2
:100FC0004017828B7011127A910D816CD90AA86139
:100FD000E108C7586607615143061E4B5D05C145D0
:100FE000A7041A411104093D9803713931034036B1
:100FF000DB0265339102D4305402802E1D02632C33
:10100000EE01752AC501B028A001102781018F25A6
:1010100064012B244B01E0223401AC211F018D20FF
:101020000D01801FFC00841EED00971DDF00B81C21
:10103000D200E61BC600201BBC00641AB200B21925
:10104000A8000A19A0006A189900D117910040174A
:101050008B00B516840031167E00B31579003A1561
:101060007300C7146F0058146A00EE1366008813EB
:10107000630025135E00C7125B006C125700151247
:101080005400C111510070114F0021114B00D610B6
:1010900049008D1047004610440002104200C00F66
:1010A0004000800F3E00420F3C00060F3B00CB0E7D
:1010B0003800930E37005C0E3500270E3400F30D18
:1010C0003200C10D3100900D3000600D2E00320D48
:1010D0002D00050D2C00D90C2B00AE0C2900850C21
:1010E00029005C0C2700350C27000E0C2600E80BAD
:1010F0002400C40B2400A00B23007D0B23005A0BFB
:101100002100390B2100180B2000F80A1F00D90A12
:101110001E00BB0A1E009D0A1D00800A1D00630AF6
:101120001C00470A1B002C0A1B00110A1A00F709B1
:101130001A00DD091900C4091900AB091900920948
:1011400017007B091800630917004C0916003609BF
:101150001600200916000A091500F5081500E00818
:101160001400CC081400B8081400A4081400900857
:1011700013007D0812006B0813005808120046087F
:101180001200340811002308110012081100010890
:101190001100F0071000E0071000D0071000C00792
:1011A0001000B0070F00A107100091070E00830781
:1011B0000F0074070F0065070E0057070E00490760
:1011C0000E003B070D002E070E0020070D00130731
:1011D0000D0006070D00F9060C00ED060D00E006F7
:1011E0000C00D4060C00C8060C00BC060C00B006AF
:1011F0000C00A4060B0099060C008D060B0082065D
:101200000B0077060B006C060B0061060A00570600
:101210000B004C060A0042060A0038060A002E0699
:101220000A0024060A001A060A001006090007062A
:101230000A00FD050900F4050900EB050900E205B7
:101240000900D9050900D0050900C7050900BE0538
:101250000900B5050800AD050800A50509009C05B5
:101260000800940508008C050800840508007C052A
:101270000800740508006C050700650508005D0599
:101280000700560508004E05070047050700400502
:10129000080038050700310507002A050700230567
:1012A00007001C050600160507000F0507000805C6
:1012B000060002050700FB040600F5040700EE0423
:1012C0000600E8040600E2040700DB040600D5047B
:1012D0000600CF040600C9040600C3040600BD04CE
:1012E0000600B7040600B1040500AC040600A6041D
:1012F0000600A00405009B04060095040500900468
:1013000006008A04050085040500800406007A04AE
:10131000050075040500700405006B0405006604F3
:101320000500610405005C04050057040500520433
:1013300005004D04050048040500430405003E0473
:1013400004003A04050035040500300404002C04B0
:10135000050027040400230405001E0404001A04E9
:10136000040016040500110404000D04040009041F
:1013700005000404040000040400FC030400F80356
:101380000400F4030400F0030400EC030400E80389
:101390000400E4030400E0030400DC030400D803B9
:1013A0000400D4030400D0030400CC030400C803E9
:1013B0000300C50303006563686F3A00656E6473DC
:1013C000746F7073206869743A205A00205A3A008A
:1013D000656E6473746F7073206869743A20590085
:1013E00020593A00656E6473746F70732068697475
:1013F0003A20580020583A00656E6473746F707319
:10140000206869743A20004572726F723A00457222
:10141000723A204D415854454D50204245440054A5
:10142000656D70657261747572652068656174655B
:101430006420626564207377697463686564206FF3
:1014400066662E204D415854454D50207472696790
:101450006765726564202121004572723A204D490A
:101460004E54454D50003A2045787472756465724B
:10147000207377697463686564206F66662E204DFB
:10148000494E54454D5020747269676765726564B2
:101490002021004572723A204D415854454D50006C
:1014A0003A20457874727564657220737769746345
:1014B000686564206F66662E204D415854454D5036
:1014C00020747269676765726564202100202D2091
:1014D000496E76616C6964206578747275646572B2
:1014E000206E756D62657220210070012C019001E3
:1014F0002701B0012201C0011D01F00118011002F5
:10150000130130020E016002090190020401C002C1
:10151000FF000003FA004003F5008003F000D00351
:10152000EB002004E6007004E100E004DC0040056C
:10153000D700C005D2004006CD00D006C800800705
:10154000C3003008BE00F008B900C009B400B00AFA
:10155000AF00B00BAA00D00CA500000EA000500FE9
:101560009B00C01096005012910000148C00C01512
:101570008700B0178200B0197D00D01B7800001ED4
:10158000730040206E0090226900F0246400402720
:101590005F0090295A00E02B5500102E500020309B
:1015A0004B0010324600E033410090353C001037CC
:1015B000370070383200A0392D00B03A2800A03B27
:1015C0002300603C1E00103D1900903D1400103EA9
:1015D0000F00703E0A00C03E0500003F0000504969
:1015E00044204175746F74756E652066696E697309
:1015F000686564212050757420746865206C61737F
:1016000074204B702C204B6920616E64204B642049
:10161000636F6E7374616E74732066726F6D206198
:10162000626F766520696E746F20436F6E666967BE
:1016300075726174696F6E2E68005049442041755F
:10164000746F74756E65206661696C6564212074C1
:10165000696D656F75740020403A006F6B20543AD5
:10166000006F6B20423A00504944204175746F74FA
:10167000756E65206661696C6564212054656D70C6
:101680006572617475726520746F6F206869676830
:1016900000204B643A2000204B693A2000204B7018
:1016A0003A200020436C61737369632050494420E1
:1016B000002054753A2000204B753A2000206D61BF
:1016C000783A2000206D696E3A200020643A2000AC
:1016D00020626961733A20002D2D3A2D2D002D2DA9
:1016E0002D005344000120004E6F205344206361BD
:1016F0007264005072696E742066726F6D2053447C
:101700000053746F70207072696E74005265737547
:101710006D65207072696E7400506175736520701C
:1017200072696E7400436F6E74726F6C00507265F4
:10173000706172650054756E6500496E666F207346
:10174000637265656E00052E2E004D61696E004D59
:101750003234004D3233202573004D383420582068
:1017600059205A204500526573746F726520666176
:10177000696C73616665004C6F6164206D656D6FA7
:1017800072790053746F7265206D656D6F727900A8
:101790004D6F74696F6E0054656D7065726174751C
:1017A0007265004D61696E004573746570732F6DCD
:1017B0006D004573746570732F6D6D005A73746599
:1017C00070732F6D6D005A73746570732F6D6D009B
:1017D0005973746570732F6D6D00597374657073F0
:1017E0002F6D6D005873746570732F6D6D00587395
:1017F000746570732F6D6D00412D72657472616335
:101800007400412D7265747261637400416D61787A
:10181000206500416D6178206500416D6178207A16
:1018200000416D6178207A00416D61782079004136
:101830006D6178207900416D6178207800416D619B
:10184000782078005654726176206D696E00565487
:10185000726176206D696E00566D696E00566D6915
:101860006E00566D6178206500566D6178206500C8
:10187000566D6178207A00566D6178207A00566D39
:101880006178207900566D6178207900566D617815
:10189000207800566D617820780056652D6A657253
:1018A0006B0056652D6A65726B00567A2D6A6572FB
:1018B0006B00567A2D6A65726B005678792D6A65D1
:1018C000726B005678792D6A65726B0041636365AF
:1018D0006C00416363656C00436F6E74726F6C00E3
:1018E0005072656865617420504C4120636F6E666C
:1018F000005049442D43005049442D430050494471
:101900002D44005049442D44005049442D49005075
:1019100049442D49005049442D50005049442D5010
:101920000020022046616374002002204661637437
:10193000002002204D6178002002204D61780020B7
:1019400002204D696E002002204D696E004F6666D0
:10195000004F6E20004F6666004F6E200041757488
:101960006F74656D700046616E207370656564000C
:1019700046616E207370656564004E6F7A7A6C659F
:10198000004E6F7A7A6C6500436F6E74726F6C00F4
:1019900053746F7265206D656D6F7279004E6F7A4A
:1019A0007A6C65004E6F7A7A6C650046616E2073C2
:1019B000706565640046616E2073706565640054EF
:1019C000656D7065726174757265004D6F76652026
:1019D0006178697300436F6F6C646F776E0050724B
:1019E000656865617420504C41004732380041758C
:1019F000746F20686F6D65004D3834004469736101
:101A0000626C65207374657070657273004D6169F6
:101A10006E004D6F766520302E316D6D004D6F7606
:101A20006520316D6D00507265706172650045789A
:101A3000747275646572004D6F7665205A004D6F43
:101A400076652059004D6F76652058004D6F76659C
:101A50002061786973004578747275646572005A04
:101A600000590058004D363030004368616E67659C
:101A70002066696C616D656E7400466C6F7720300E
:101A800000466C6F77203000466C6F7700466C6FB5
:101A9000770046616E2073706565640046616E2054
:101AA0007370656564004E6F7A7A6C65004E6F7A6C
:101AB0007A6C6500537065656400537065656400F9
:101AC0004D61696E00436172642072656D6F766569
:101AD00064004361726420696E73657274656400AA
:101AE00000002100240027002A002D0030003300D0
:101AF00001010000040107010A0100002200250085
:101B000028002B002E0031003400020100000501E6
:101B100008010B01000020002300260029002C00F2
:101B20002F00320000010000030106010901050534
:101B30000505070508080808020202020A0A080843
:101B40000404040401010101010101010303030371
:101B500003030303040707070C0C0C0C0C0C0C0C00
:101B60000202020206060606060606060B0B0B0B11
:101B70000B0B0B0B01021020200808102040102036
:101B80004080020102010804020101020408102041
:101B9000408080402010080402018004020180403F
:101BA00020100804020108040201010204081020A8
:101BB000408001020408102040800000090A020849
:101BC0000B0C0D07060304010000000000000000DC
:101BD0000000000000000000000000000000000005
:101BE00000000000000011100F00000000000000C5
:101BF00000000000000000000000000000000000E5
:101C000002494E46494E4954594E414ECDCCCC3DE9
:101C10000AD7233C17B7D13877CC2B329595E624D9
:101C20001FB14F0A000020410000C84200401C467E
:101C300020BCBE4CCA1B0E5AAEC59D74F42C8B3012
:101C4000FDC0E7C4863011241FBECFEFD1E2DEBF56
:101C5000CDBF00E00CBF14E0A0E0B2E0ECEBFAEA8C
:101C600001E00BBF02C007900D92A43FB107D9F766
:101C70001BBE13E1A4EFB4E001C01D92A139B1076E
:101C8000E1F71CE1C4E4DCE104C02297FE010E94FC
:101C900004D5CC33D107C9F70E94FFCB0C9452D5A1
:101CA0000C940000A0E0B0E0E8E5FEE00C9421D543
:101CB000EC015B016115710519F0FB0191838083D3
:101CC000F9908F2D90E00E9408D5892BC9F7FDE28D
:101CD000FF1621F4F990EE24E39405C02BE2F216EE
:101CE00009F4F990EE248E0101501040C80161E022
:101CF0007CE143E050E072D2892BF9F48E010E5F53
:101D00001F4FC80164E07CE145E050E067D2892BB9
:101D100019F48E01095F1F4FA114B10419F0F501E8
:101D200011830083E0FC04C070E090E080E813C001
:101D300070E090E080E86FEF07C1C80169E07CE1E6
:101D400043E050E04BD2892B69F4A114B10429F48B
:101D500070E090E080EC6FE7F7C02296F501D18348
:101D6000C083F6CF8824992440E050E060E070E022
:101D7000EF2DE053EA30A0F5F2E0EF2A8E2D90E04F
:101D80009C0128703070E2FE06C0232B79F5089480
:101D9000811C911C2BC0232B19F0089481089108F9
:101DA000DB01CA0112E0880F991FAA1FBB1F1A95F9
:101DB000D1F7480F591F6A1F7B1F440F551F661F1D
:101DC000771F4E0F511D611D711D483929E95207BA
:101DD00029E9620729E1720748F084E0E82A06C091
:101DE000EE3F31F4E3FC39C098E0E92AF990C0CF26
:101DF000E53311F0E53189F529912D3219F4E0E14F
:101E0000EE2A05C02B3219F081E090E003C0299141
:101E100082E090E0E22FE053EA3018F0C81BD90BC3
:101E20001CC020E030E0FCE020383F075CF4C90132
:101E3000880F991F880F991F280F391F220F331FF2
:101E40002E0F311DE991E053EA3068F3E4FE03C040
:101E5000309521953F4F820E931ECE2CDD24E1FE5E
:101E600007C0A114B10421F02197F501D183C083EB
:101E7000CB01BA010E946DD17B018C01F3E0CF222E
:101E8000DD2423E0C216D10421F417FB109517F9C5
:101E9000109557016801C801B70120E030E040E02B
:101EA00050E00E94CDD0882309F44AC097FE0DC0AF
:101EB00020E2E22E2CE1F22E9094819491089394EA
:101EC000C0E2D0E000E010E012C098E3E92E9CE10F
:101ED000F92EF6CFF7012591359145915491C60120
:101EE000B5010E94ADD35B016C018C1A9D0A8C1662
:101EF0009D0684F7D595C7950F5F1F4F06301105D6
:101F000029F08CEF9FEFE80EF91EF1CFC501D60145
:101F10007C018D018C2D880F8D2D881F8F3F51F0F6
:101F2000C601B50120E030E040E050E00E94CDD095
:101F3000882331F482E290E09093901380938F1382
:101F40007E2D9F2D802F612F272F392F482F562F21
:101F5000B901CA01CDB7DEB7ECE00C943DD52F92A4
:101F60003F925F926F927F928F929F92AF92BF92B9
:101F7000CF92DF92EF92FF920F931F93CF93DF9355
:101F80008C011B01EA016115710519F0FB019183B8
:101F90008083209749F0CE010297839728F020E0B4
:101FA00030E040E050E0F6C0F801A1908F018A2DAA
:101FB00090E00E9408D5892BB9F7FDE2AF1631F405
:101FC000F801A1908F015524539407C0FBE2AF168E
:101FD00019F4F801A1908F015524209719F0C03110
:101FE000D105C1F4F0E3AF1679F4F80180818837A8
:101FF00011F0883549F4F801A1800E5F1F4FF2E01F
:102000005F2AC0E1D0E006C0209721F480E3A81643
:10201000E9F427C0C830D10531F1C930D10524F425
:10202000C230D10531F50CC0CA30D10589F0C031BC
:10203000D105F9F4C12CD12CE12CB8E0FB2E28C03D
:10204000C12CD12CE12CA0E4FA2E22C0CAE0D0E0B1
:10205000FCECCF2EFCECDF2EFCECEF2EFCE0FF2E98
:1020600017C0C8E0D0E0C12CD12CE12CE0E1FE2E5D
:102070000FC09E01442737FD4095542F60E070E06B
:1020800080E090E80E94C5D4C901DA016C017D01AD
:1020900020E030E040E050E060E03E01882477FC42
:1020A0008094982C70EDB72EBA0CE9E0EB1570F423
:1020B0008A2D81548A3118F499ECB92E06C08A2DE4
:1020C00081568A3150F589EAB82EBA0C8B2D90E0F2
:1020D0008C179D0714F56F3FE1F0C216D306E40696
:1020E000F506B0F0CA01B901A40193010E947FD4A2
:1020F0009B01AC012B0D311D411D511D2130F0E024
:102100003F07F0E04F07F0E85F0710F461E001C01F
:102110006FEFF801A1908F01C5CF2114310481F038
:10212000662331F001501040F1011183008308C093
:1021300051FE1AC002501040F1011183008314C0F7
:1021400067FF12C050FC05C02FEF3FEF4FEF5FE776
:1021500004C020E030E040E050E882E290E090935C
:10216000901380938F1316C050FE08C05095409571
:10217000309521953F4F4F4F5F4F0CC057FF0AC01E
:1021800082E290E09093901380938F132FEF3FEFB4
:102190004FEF5FE7B901CA01DF91CF911F910F9116
:1021A000FF90EF90DF90CF90BF90AF909F908F9077
:1021B0007F906F905F903F902F900895FB01DC011E
:1021C00005900D920020E1F70895FC010590002094
:1021D000E9F7809590958E0F9F1F0895FB01DC0114
:1021E0004150504088F08D9181341CF08B350CF4B7
:1021F000805E659161341CF06B350CF4605E861B6B
:10220000611171F3990B0895881BFCCFFB01DC0170
:102210004150504048F005900D920020C9F701C090
:102220001D9241505040E0F70895FB015591552310
:10223000A9F0BF01DC014D9145174111E1F759F4B7
:10224000CD010590002049F04D9140154111C9F391
:10225000FB014111EFCF81E090E001970895FB0170
:10226000DC0104C08D910190801921F4415050404F
:10227000C8F7881B990B0895FB01DC0102C001908F
:102280000D9241505040D8F70895FB01DC010D90AC
:102290000020E9F7119701900D920020E1F70895D1
:1022A000FC018191861721F08823D9F79927089599
:1022B0003197CF010895FB01DC018D9101908019C8
:1022C0000110D9F3990B0895FB01DC0101900D92E7
:1022D0000020E1F70895FB01DC014150504030F04F
:1022E0008D910190801919F40020B9F7881B990B82
:1022F0000895FB01DC014150504048F001900D92DF
:102300000020C9F701C01D9241505040E0F70895E8
:10231000AEE0B0E0EEE8F1E10C9429D50E891F891A
:102320008EE08C831A8309838FEF9FE79E838D83D2
:102330009E01265E3F4FCE010196688D798DA901E1
:102340000AD02F813885020F131FF80110822E96B4
:10235000E4E00C9445D5ABE0B0E0E1EBF1E10C94A6
:102360001BD53C012B015A01FC0117821682838187
:1023700081FD03C06FEF7FEFB9C19AE0892E1E0186
:102380000894211C311CF3012381F20123FD859166
:1023900023FF81912F01882309F4A5C1853239F4E7
:1023A00023FD859123FF81912F01853221F490E057
:1023B000B301B7D1E8CF982FFF24EE249924FFE191
:1023C000FF15D0F09B3269F09C3228F4903259F01E
:1023D000933291F40EC09D3249F0903369F441E09C
:1023E00024C052E0F52A84E0F82A28C098E0F92AAF
:1023F00025C0E0E1FE2A22C0F7FC29C0892F8053C6
:102400008A3070F4F6FE05C0989C902C1124980E2A
:1024100015C0E89CE02C1124E80EF0E2FF2A0EC063
:102420009E3229F4F6FC5FC140E4F42A07C09C36D2
:1024300019F450E8F52A02C0983649F4F20123FD58
:10244000959123FF91912F01992309F0B8CF892FFE
:102450008554833018F08052833038F444E050E0E3
:10246000A40EB51E5FE359830FC0933631F0933746
:1024700079F0933509F052C01FC0F501808189833E
:1024800042E050E0A40EB51E610101E010E011C071
:10249000F501C080D180F6FC03C06FEF7FEF02C072
:1024A000692D70E042E050E0A40EB51EC6012ED1A9
:1024B0008C015FE7F52213C0F501C080D180F6FCE6
:1024C00003C06FEF7FEF02C0692D70E042E050E083
:1024D000A40EB51EC6010FD18C0150E8F52AF3FEFB
:1024E00006C018C080E290E0B3011BD1EA948E2DA3
:1024F00090E008171907B0F30DC0F601F7FC8591BD
:10250000F7FE81916F0190E0B3010BD1E110EA94E5
:10251000015010400115110581F7E2C0943611F009
:10252000993661F5F7FE08C0F501208131814281BD
:10253000538184E090E00AC0F501808191819C0183
:10254000442737FD4095542F82E090E0A80EB91E35
:102550009FE6F92257FF09C0509540953095219587
:102560003F4F4F4F5F4FE0E8FE2ACA01B901A1017A
:102570002AE030E002D1D82ED2183FC0953729F496
:102580001F2D1F7E2AE030E01DC01F2D197F9F36B2
:1025900061F0903720F4983509F0A5C00FC090374E
:1025A00039F0983709F09FC004C028E030E00AC035
:1025B000106114FD146020E130E004C014FD1660C9
:1025C00020E132E017FF08C0F5016081718182814E
:1025D000938144E050E008C0F50180819181BC0105
:1025E00080E090E042E050E0A40EB51EA101C5D00D
:1025F000D82ED2188FE7F82EF122F6FE0BC05EEF30
:10260000F522D91438F4F4FE07C0F2FC05C08FEEB1
:10261000F82202C01D2D01C0192DF4FE0DC0FE01CF
:10262000ED0DF11D8081803319F499EEF92208C077
:102630001F5FF2FE05C003C08F2D867809F01F5F73
:102640000F2DF3FC13C0F0FE0EC01E1510F09D2CD4
:102650000AC09D2C9E0C911A1E2D05C080E290E0B0
:10266000B3015FD01F5F1E15C8F304C01E1510F420
:10267000E11A01C0EE2404FF0EC080E390E0B30134
:1026800050D002FF1BC001FD03C088E790E00EC0E0
:1026900088E590E00BC0802F867881F001FF02C0B2
:1026A0008BE201C080E2F7FC8DE290E0B30139D00B
:1026B00005C080E390E0B30134D09A94D914C8F3F4
:1026C000DA94F101ED0DF11D808190E0B30129D084
:1026D000DD20B1F705C080E290E0B30122D0EA949A
:1026E000EE20C9F750CEF30166817781CB012B969E
:1026F000E2E10C9437D5FC01059061507040011067
:10270000D8F7809590958E0F9F1F0895FC0161501A
:10271000704001900110D8F7809590958E0F9F1F03
:1027200008950F931F93CF93DF938C01EB018B815F
:1027300081FF1BC082FF0DC02E813F818C819D8156
:102740002817390764F4E881F9810193F983E88354
:1027500006C0E885F985802F1995892B31F48E8183
:102760009F8101969F838E8302C00FEF1FEFC801E8
:10277000DF91CF911F910F910895FA01AA27283078
:1027800051F1203181F1E8946F936E7F6E5F7F4F3E
:102790008F4F9F4FAF4FB1E03ED0B4E03CD0670FBA
:1027A000781F891F9A1FA11D680F791F8A1F911D0D
:1027B000A11D6A0F711D811D911DA11D20D009F45D
:1027C00068943F912AE0269F11243019305D31939F
:1027D000DEF6CF010895462F4770405D4193B3E088
:1027E0000FD0C9F7F6CF462F4F70405D4A3318F02F
:1027F000495D31FD4052419302D0A9F7EACFB4E0E0
:10280000A6959795879577956795BA95C9F7009797
:102810006105710508959B01AC010A2E0694579538
:10282000479537952795BA95C9F7620F731F841F8F
:10283000951FA01D0895FC01128213820895FC01CA
:102840008381882311F081E082830895FC018281D5
:10285000811112820895CF93DF93DC01FC01EB55C7
:10286000FE4F808191810097C9F101979183808308
:10287000ED01CC5ADF4FFD01ED58FF4F8BE1019088
:1028800009928150E1F7FD01EE5AFF4FAF58BF4F5B
:102890008D919C911197A157B04091838083FD0148
:1028A000ED58FF4F20E030E0AD014B555E4F10C0BA
:1028B0002F5F3F4FEF01DF015F968BE10D90099293
:1028C0008150E1F7858D968D329791838083B19603
:1028D000DA018D919C912817390750F3DF91CF9140
:1028E0000895FC0187E894E09183808387818823A1
:1028F00021F0CF0104960C9497700895CF92DF9247
:10290000EF92FF920F931F93DF93CF93CDB7DEB774
:102910006F970FB6F894DEBF0FBECDBF8C016B0171
:10292000095A1F4FD8018C9107551040882321F474
:102930002FE2E22EF12C03C090E5E92EF12CE00EFF
:10294000F11E87E894E09A8389831C821B82188693
:102950001D82B7016C5F7F4FCE010596A60121E075
:102960000E948377882391F5EBE3F1E0949108C00E
:102970008091C00085FFFCCF9093C6003196949162
:102980009923B1F7E1E4F1E0949108C08091C0008F
:1029900085FFFCCF9093C600319694919923B1F7AF
:1029A00009C08091C00085FFFCCF0894C11CD11CD8
:1029B0009093C600F6019081992399F78091C00009
:1029C00085FFFCCF8AE08093C6005AC0F801EB5522
:1029D000FE4F208131812A30310508F040C02F5F41
:1029E0003F4F3183208321503040F90185E0EE0FC5
:1029F000FF1F8A95E1F7E21BF30BED58FF4FE00F45
:102A0000F11F13C0AF01415E5F4FBF018BE1DB01DE
:102A10000D90BD01DA010D92AD018150C1F7929187
:102A200082913296968F858F7F9721503040BFEFED
:102A30002E3F3B0739F7D801AD58BF4FF701349609
:102A40008BE101900D928150E1F70F581F4FF70174
:102A500082819381D8018D939C9301571040D801B6
:102A6000AC5ABF4FFE0135968BE101900D9281501B
:102A7000E1F70E5A1F4F8B819C81F801918380836F
:102A8000CE0101962EDF6F960FB6F894DEBF0FBE13
:102A9000CDBFCF91DF911F910F91FF90EF90DF900D
:102AA000CF900895EF92FF920F931F938C013EEC0D
:102AB000E32E31E0F32EE80EF91EC7010E944A70A2
:102AC000C7010E949770F801108211821F910F9127
:102AD000FF90EF900895CF92DF92EF92FF920F93C5
:102AE0001F93CF93DF937C016B01DB010D900020DE
:102AF000E9F78D0101501040061B170BEEECF1E0D9
:102B0000EE0EFF1ED7011C92E2E3FEEFEE0EFF1E5B
:102B1000CB016EE470E0C4DBEC01009731F4F80106
:102B20003197EC0DFD1D86010CC060E270E0B8DB52
:102B30008C010F5F1F4FCE016AE270E0B1DBFC0138
:102B400031978DE081838AE082831382C7018653A7
:102B50009E4FB8010E947C788EEC91E0E80EF91E41
:102B6000D7018C91882319F1EBE6F1E0949108C02C
:102B70008091C00085FFFCCF9093C6003196949160
:102B80009923B1F7E2E7F1E0949108C08091C00089
:102B900085FFFCCF9093C600319694919923B1F7AD
:102BA0008091C00085FFFCCF8AE08093C600DF9152
:102BB000CF911F910F91FF90EF90DF90CF900895EC
:102BC000CF93DF93EC018B81882309F43BC0EAE9C2
:102BD000F1E0949108C08091C00085FFFCCF9093F4
:102BE000C600319694919923B1F7CD57DD4F4881B6
:102BF00059816A817B81C358D24088E795E02AE0F9
:102C000030E00E948D2DE8E9F1E0949108C08091B8
:102C1000C00085FFFCCF9093C60031969491992314
:102C2000B1F7C558DD4F488159816A817B8188E7BA
:102C300095E02AE030E00E948D2D8091C00085FF54
:102C4000FCCF12C0E8E8F1E0949108C08091C00088
:102C500085FFFCCF9093C600319694919923B1F7EC
:102C60008091C00085FFFCCF8AE08093C600DF9191
:102C7000CF9108952F923F924F925F926F927F92E1
:102C80008F929F92AF92BF92CF92DF92EF92FF927C
:102C90000F931F93DF93CF93CDB7DEB7AC970FB6EB
:102CA000F894DEBF0FBECDBF5C014B01FC018381F8
:102CB000882309F43BC1C50182539E4F0E9497703F
:102CC000F50112821A8A1D8A198A188A87E894E007
:102CD0009F878E875EE4C52ED12CCA0CDB1C2FE2A9
:102CE00030E0A20EB31EF601B182A08221ED3FEFCB
:102CF000A20EB31EF40180818F3209F08DC0C40191
:102D00006FE270E0CDDA7C010894E11CF11C3E0119
:102D10000894611C711C260142E1242E312C2C0EDA
:102D20003D1E75C0C7016FE270E0BADA6C01009712
:102D300009F480C0E816F90608F07CC08C010E1971
:102D40001F09C301B701A801D4DA060D171DF80148
:102D50001082F30107C08091C00085FFFCCF31963F
:102D60009093C60090819923B1F78091C00085FFB0
:102D7000FCCFFAE0F093C600F20160817181611529
:102D8000710519F460E070E002C06C5F7F4FC10113
:102D9000A30121E00E948377882371F5E6EDF1E03D
:102DA000949108C08091C00085FFFCCF9093C6002D
:102DB000319694919923B1F7FE01319607C0809125
:102DC000C00085FFFCCF31969093C6009081992377
:102DD000B1F7E4EDF1E0949108C08091C00085FF67
:102DE000FCCF9093C600319694919923B1F78091CE
:102DF000C00085FFFCCF94C02EE030E02C0F3D1FBB
:102E0000F2013183208376010894E11CF11CE11466
:102E1000F10409F087CF0BC080E590E0A80EB91E41
:102E2000F601B182A08220EB3FEFA20EB31ED82C98
:102E3000092D02C0DE2C0F2D8EE490E0A80EB91EE5
:102E4000F5018081918122EB3FEFA20EB31E009726
:102E500019F480E090E001C004966D2D702F0E945F
:102E60004F78882371F1E6ECF1E0949108C08091ED
:102E7000C00085FFFCCF9093C600319694919923B2
:102E8000B1F78D2D902F9C01F90107C08091C000F2
:102E900085FFFCCF31969093C60090819923B1F7BE
:102EA0008091C00085FFFCCF8AE08093C60083E854
:102EB00092E0A80EB91EF5011082118212821382CF
:102EC00032C0EEEAF1E0949108C08091C00085FF25
:102ED000FCCF9093C600319694919923B1F78D2D34
:102EE000902F9C01F90107C08091C00085FFFCCFA5
:102EF00031969093C60090819923B1F7ECEAF1E006
:102F0000949108C08091C00085FFFCCF9093C600CB
:102F1000319694919923B1F78091C00085FFFCCF41
:102F20008AE08093C600CE010E96DBDCAC960FB62D
:102F3000F894DEBF0FBECDBFCF91DF911F910F91EF
:102F4000FF90EF90DF90CF90BF90AF909F908F90C9
:102F50007F906F905F904F903F902F900895BF9219
:102F6000CF92DF92EF92FF920F931F93CF93DF9355
:102F70008C01EB018FE28993FF24EE24E39475EA40
:102F8000C72E71E0D72EC00ED11E6FE1B62E14C031
:102F9000FB9CC00111248D589F4F800F911FBE01D3
:102FA0000E94A77002C02196E3948881882319F0BB
:102FB0008CE88E15C0F7F3942F2D30E0F601808158
:102FC00091812817390720F3E7FC07C0C801825315
:102FD0009E4FBE010E94A77001C01882DF91CF9161
:102FE0001F910F91FF90EF90DF90CF90BF900895C9
:102FF0002F923F924F925F926F927F928F929F9209
:10300000AF92BF92CF92DF92EF92FF920F931F93F6
:10301000DF93CF93CDB7DEB7AD970FB6F894DEBF91
:103020000FBECDBF6C014B014DA7DC0113968C91F7
:10303000882309F448C3E1EDF1E0CE0EDF1ED6018E
:103040008C91EFE2FEEFCE0EDF1E882309F418C14B
:10305000222309F0E0C029EE31E0C20ED31ED601D2
:103060008C91E7E1FEEFCE0EDF1E882371F1EBE6D7
:10307000F1E0949108C08091C00085FFFCCF90934F
:10308000C600319694919923B1F7EEEAF2E094915B
:1030900008C08091C00085FFFCCF9093C600319698
:1030A00094919923B1F788E795E061E070E04AE0F8
:1030B00050E00E94DC2D8091C00085FFFCCF8AE0AB
:1030C0008093C6000E94D830FEC2EBE3F1E09491F9
:1030D00008C08091C00085FFFCCF9093C600319658
:1030E00094919923B1F7E5E9F2E0949108C08091B9
:1030F000C00085FFFCCF9093C60031969491992330
:10310000B1F7F40107C08091C00085FFFCCF319674
:103110009093C60090819923B1F7EAE8F2E0949188
:1031200008C08091C00085FFFCCF9093C600319607
:1031300094919923B1F7C6012EEE31E0C20ED31E51
:10314000B6010DDF4BEF5FEFC40ED51ED6019C918B
:10315000E7E1FEEFCE0EDF1E8DE8989FF00111240F
:10316000E251FE4FEC0DFD1D07C08091C00085FFB0
:10317000FCCF31969093C60090819923B1F7E4E893
:10318000F2E0949108C08091C00085FFFCCF90933D
:10319000C600319694919923B1F723E832E0C20E2C
:1031A000D31ED6014D915D916D917C91EDE7FDEFC0
:1031B000CE0EDF1E88E795E02AE030E00E948D2DDC
:1031C0008091C00085FFFCCF8AE08093C600A601F5
:1031D00047515E4FDA012C91E22FF0E0EE0FFF1F16
:1031E000EE0FFF1FEC0DFD1DE651FE4F83E892E050
:1031F000C80ED91ED6014D905D906D907C908DE7E4
:103200009DEFC80ED91E40825182628273822F5F69
:10321000DA012C932FC0EBE3F1E0949108C0809188
:10322000C00085FFFCCF9093C600319694919923FE
:10323000B1F7E3E7F2E0949108C08091C00085FF08
:10324000FCCF9093C600319694919923B1F7F40185
:1032500007C08091C00085FFFCCF31969093C600D7
:1032600090819923B1F78091C00085FFFCCF8AE05F
:103270008093C600C60182539E4F0E94977039C04A
:10328000E9EEF1E0CE0EDF1ED6011C92E7E1FEEF83
:10329000CE0EDF1EEBE3F1E0949108C08091C000F8
:1032A00085FFFCCF9093C600319694919923B1F796
:1032B000E2E6F2E0949108C08091C00085FFFCCF67
:1032C0009093C600319694919923B1F7F40107C009
:1032D0008091C00085FFFCCF31969093C60090810D
:1032E0009923B1F78091C00085FFFCCF8AE08093DD
:1032F000C600D60112961C921A8A1D8A198A188A4B
:1033000087E894E09F878E87FEE4AF2EB12CAC0C4B
:10331000BD1CEFE2F0E0CE0EDF1ED501CD92DC92B7
:10332000E1EDFFEFCE0EDF1ED4018C918F3209F05C
:1033300090C0C4016FE270E00E9450117C010894BB
:10334000E11CF11C3E010894611C711C2501E2E1A5
:103350002E2E312C2C0E3D1E77C0C7016FE270E07F
:103360000E9450115C01009709F481C0E816F9062B
:1033700008F07DC08C010E191F09C301B701A80117
:103380000E947911060D171DF8011082F30107C084
:103390008091C00085FFFCCF31969093C60090814C
:1033A0009923B1F78091C00085FFFCCFFAE0F0933C
:1033B000C600D2016D917C916115710519F460E030
:1033C00070E002C06C5F7F4FC101A30121E00E9449
:1033D0008377882371F5EEE4F2E0949108C0809140
:1033E000C00085FFFCCF9093C6003196949199233D
:1033F000B1F7FE01319607C08091C00085FFFCCF78
:1034000031969093C60090819923B1F7ECE4F2E0F5
:10341000949108C08091C00085FFFCCF9093C600B6
:10342000319694919923B1F78091C00085FFFCCF2C
:103430001BC12EE030E02C0F3D1FF20131832083B1
:1034400075010894E11CF11CE114F10409F085CF29
:103450000BC040E550E0C40ED51ED501CD92DC92E4
:10346000E0EBFFEFCE0EDF1E082DF92C01C00E2D74
:10347000F601E25BFF4F2DA5222309F4B1C0608164
:1034800071816115710519F460E070E002C06C5F34
:103490007F4FC60182539E4F402F5F2D21E00E9437
:1034A0008377882309F46CC04FED51E0C40ED51E1C
:1034B000D6014D915D916D917C91ECE9F0E0CE0EDD
:1034C000DF1ED6014D935D936D937C931397E5E8D2
:1034D000FDEFCE0EDF1EEEE3F2E0949108C0809186
:1034E000C00085FFFCCF9093C6003196949199233C
:1034F000B1F7802F9F2D9C01F90107C08091C0007A
:1035000085FFFCCF31969093C60090819923B1F747
:10351000E6E3F2E0949108C08091C00085FFFCCF03
:103520009093C600319694919923B1F788E795E07E
:103530002AE030E00E948D2D8091C00085FFFCCFF5
:103540008AE08093C60023E832E0C20ED31ED60183
:103550001D921D921D921C921397E8E2F2E0949145
:1035600008C08091C00085FFFCCF9093C6003196C3
:1035700094919923B1F78091C00085FFFCCF99C049
:10358000E4E1F2E0949108C08091C00085FFFCCF97
:103590009093C600319694919923B1F7802F9F2D77
:1035A0009C01F90107C08091C00085FFFCCF3196D6
:1035B0009093C60090819923B1F7E2E1F2E09491F3
:1035C00008C08091C00085FFFCCF9093C600319663
:1035D00094919923B1F78091C00085FFFCCF44C03E
:1035E000608171816115710519F460E070E002C0BD
:1035F0006C5F7F4FC60182539E4F402F5F2D26E5A3
:103600000E948377882309F033C0EEEFF1E09491B4
:1036100008C08091C00085FFFCCF9093C600319612
:1036200094919923B1F7802F9F2D9C01F90107C038
:103630008091C00085FFFCCF31969093C6009081A9
:103640009923B1F7ECEFF1E0949108C08091C000AC
:1036500085FFFCCF9093C600319694919923B1F7E2
:103660008091C00085FFFCCF8AE08093C60028C00F
:1036700081E0F6018083EAEEF1E0949108C0809148
:10368000C00085FFFCCF9093C6003196949199239A
:10369000B1F7F40107C08091C00085FFFCCF3196DF
:1036A0009093C60090819923B1F78091C00085FF67
:1036B000FCCF8AE08093C600802F9F2D0E9459C1C5
:1036C000CE010E960ED9AD960FB6F894DEBF0FBEA2
:1036D000CDBFCF91DF911F910F91FF90EF90DF90C1
:1036E000CF90BF90AF909F908F907F906F905F90A2
:1036F0004F903F902F900895EF92FF920F931F935A
:10370000CF93DF93EC010E94527E8E0107511E4F32
:10371000D8018C919EECE92E91E0F92EEC0EFD1E65
:10372000882399F1C7010E949770F8016081615068
:1037300060838DE8689FB001112462517E4F6C0F49
:103740007D1FCE0141E021E053DCD801EC91F0E097
:10375000EE0FFF1FEE0FFF1FEC0FFD1FE651FE4F98
:103760004081518162817381CD57DD4F48835983F8
:103770006A837B83C358D240C7010E94806F8B81CC
:10378000882389F181E08A832EC00E942F7EC701A1
:103790000E9497701A828FE291E00E94D853809124
:1037A000AC0A882301F11092AC0A80913C08C82F22
:1037B000D0E0CC0FDD1FC451DE4E688179818827AF
:1037C00077FD8095982F0E946FD12091D70330917B
:1037D000D8034091D9035091DA030E94DBD2181626
:1037E00014F419821882DF91CF911F910F91FF90ED
:1037F000EF900895FC0181E08183CF0140E021E05A
:10380000F7CBEF92FF920F931F93CF93DF938C012F
:10381000FC01138286A9882321F0C801C3960E9467
:10382000977027EAE22E21E0F22EE00EF11EC7018A
:1038300060E045E30E94466E882309F5EBE3F1E082
:10384000949108C08091C00085FFFCCF9093C60082
:10385000319694919923B1F7EFE1F3E0949108C088
:103860008091C00085FFFCCF9093C6003196949163
:103870009923B1F78091C00085FFFCCF7DC0E8019E
:10388000C455DE4FCE01B70141E00E940D79882377
:1038900041F5CE01B70140E00E940D79882309F57A
:1038A000EBE6F1E0949108C08091C00085FFFCCF69
:1038B0009093C600319694919923B1F7ECE0F3E030
:1038C000949108C08091C00085FFFCCF9093C60002
:1038D000319694919923B1F78091C00085FFFCCF78
:1038E0004BC0C801C396BE010E948973882309F5A5
:1038F000EBE6F1E0949108C08091C00085FFFCCF19
:103900009093C600319694919923B1F7ECEFF2E0D1
:10391000949108C08091C00085FFFCCF9093C600B1
:10392000319694919923B1F78091C00085FFFCCF27
:1039300023C081E0F8018383EBE3F1E0949108C0B8
:103940008091C00085FFFCCF9093C6003196949182
:103950009923B1F7E1EFF2E0949108C08091C000A3
:1039600085FFFCCF9093C600319694919923B1F7CF
:103970008091C00085FFFCCF8AE08093C600D8010B
:10398000AC5ABF4FF801F3968BE101900D92815034
:10399000E1F7F80181A992A90E5A1F4FF80191830E
:1039A000808302551040C8018F96025B1F4FF801BB
:1039B00091838083DF91CF911F910F91FF90EF90C2
:1039C00008952F923F924F925F926F927F929F92B3
:1039D000AF92BF92CF92DF92EF92FF920F931F931D
:1039E000DF93CF93CDB7DEB7CC55D0400FB6F89468
:1039F000DEBF0FBECDBF6C01662311F527E832E0B4
:103A0000C20ED31ED6018C91E9E7FDEFCE0EDF1E6C
:103A1000882309F4E3C02FE732E0C20ED31ED6019B
:103A2000ED90FD900D911C91E1E8FDEFCE0EDF1EB3
:103A30000E9439C9E616F7060807190708F4CEC030
:103A400027E832E0C20ED31ED6011C92E9E7FDEF53
:103A5000CE0EDF1ED60113968C91882339F4C60151
:103A6000D0DEF6018381882309F4B8C000D000D0ED
:103A7000EDB7FEB731967E010894E11CF11CADB79D
:103A8000BEB71296FC92EE92119782E691E0938374
:103A90008283D6019D968D919C919E979583848378
:103AA0000E9488118701EDB7FEB736960FB6F894DD
:103AB000FEBF0FBEEDBF57010AC0D8018C919927F8
:103AC00087FD90950E9410D5F80181938F01F50133
:103AD00001900020E9F73197EA19FB09802F8E1930
:103AE0008E175CF363E3A62EB12CAC0CBD1CC50194
:103AF00040E050E060E070E00E94806F99245DE358
:103B0000E52EF12CEC0EFD1E2E010894411C511CDB
:103B10004FE1642E712C6C0E7D1E3BE5232E31E0AF
:103B2000332E42C0D8018C9190E00E9410D5F8014C
:103B300081938F01D7010D900020E9F71197AE19FD
:103B4000BF09802F8E198A176CF327968FAD2797A0
:103B50008E3751F1C701B20145E050E00E946B1170
:103B6000009711F500D000D0EDB7FEB73196ADB794
:103B7000BEB712967C926E92119733822282558242
:103B800044820E948811EDB7FEB736960FB6F894BE
:103B9000FEBF0FBEEDBFC3010E94055687E591E051
:103BA0000E94D85399249394C501B70140E050E096
:103BB0000E94A872181614F48701BCCF992041F412
:103BC0008FEF9FEFD6019E969C938E939D9706C094
:103BD000F60185A596A5019696A785A7C45ADF4F3D
:103BE0000FB6F894DEBF0FBECDBFCF91DF911F910E
:103BF0000F91FF90EF90DF90CF90BF90AF909F908C
:103C00007F906F905F904F903F902F9008952F92EC
:103C10003F924F925F926F927F928F929F92AF925C
:103C2000BF92CF92DF92EF92FF920F931F93DF9399
:103C3000CF93CDB7DEB7CF58D0400FB6F894DEBFE4
:103C40000FBECDBF8C013B016A0184E090E0C80E3D
:103C5000D91EF8017196C757DF4FF983E883C95819
:103C6000D040C8010496CA57DF4F99838883C6584D
:103C7000D040C857DF4F1882C858D040B6E6EB2E68
:103C8000F12CEC0EFD1EF7013B96C557DF4FF98373
:103C9000E883CB58D040A8E88A2EA2E09A2E800E66
:103CA000911EFAE8AF2EF2E0BF2EA00EB11EEEE09C
:103CB0002E2E312C2C0E3D1E77E4472E512C4C0E0F
:103CC0005D1EC2010496C357DF4F99838883CD5888
:103CD000D040EBE3F1E09491C157DF4F9883CF5888
:103CE000D0404EC1F7018385482F50E0BA0168717A
:103CF00070706031710509F051C1F401208131818A
:103D00002130310509F44AC12230310509F446C198
:103D1000F701DE0111969081903239F08E2F8E19C5
:103D2000883011F48EE28D939D933196C557DF4F05
:103D300088819981CB58D040E817F90761F71C9228
:103D40001E86F3018081882329F4C10160E072E0BE
:103D50000E944511C101B3010E944511C101BE017C
:103D60006F5F7F4F0E944511C10160E072E00E94C9
:103D700045111CA61FA61BA61AA687E894E099A7C2
:103D800088A7CE018C96B601AE014F5F5F4F21E050
:103D90000E948377882309F03FC0F40180819181DC
:103DA000892BD1F5C157DF4F9881CF58D040EBE335
:103DB000F1E008C08091C00085FFFCCF9093C60061
:103DC000319694919923B1F7E2E0F2E007C0809137
:103DD000C00085FFFCCF31969093C6009081992357
:103DE000B1F78091C00085FFFCCFFAE0F093C600E8
:103DF000FE01319607C08091C00085FFFCCF31964F
:103E00009093C60090819923B1F78091C00085FFFF
:103E1000FCCF8AE08093C600C357DF4FA881B981E9
:103E2000CD58D040FE01BC968BE101900D9281509F
:103E3000E1F78AA59BA5F2019383828387E894E04A
:103E400091838083C801B101A201E1DEC2010E9419
:103E50007114CE0188960E94711492C0953E09F4A7
:103E60008FC09E3209F48CC09F3509F489C0F801D7
:103E70009189992331F09E3209F482C09F3509F46B
:103E80007FC043FD7DC080E06031710509F481E0B1
:103E9000F80184A7882349F4F7018085873409F065
:103EA0006FC081858E3709F46BC0CA57DF4FA88178
:103EB000B981C658D040F7018081803241F08E2F01
:103EC0008E19883011F48EE28D9380818D93319616
:103ED000C557DF4F88819981CB58D040E817F90743
:103EE00059F71C92F40180819181009729F5F30123
:103EF00007C08091C00085FFFCCF31969093C6002B
:103F000090819923B1F7CA57DF4FE881F981C658EC
:103F1000D04007C08091C00085FFFCCF31969093C0
:103F2000C60090819923B1F78091C00085FFFCCF36
:103F3000FAE0F093C60024C08130910539F4F50110
:103F4000808191810196918380831AC00297C1F488
:103F5000C857DF4FF881C858D0402F2F30E0F50107
:103F60008081918128173907F1F0C857DF4FF88118
:103F7000C858D040FF5FC857DF4FF883C858D040BB
:103F8000C601B701C757DF4F48815981C958D04092
:103F90000E94A87218160CF4A5CE05C0F7019081F6
:103FA000992309F05BCFC157DF4F0FB6F894DEBFFE
:103FB0000FBECDBFCF91DF911F910F91FF90EF907A
:103FC000DF90CF90BF90AF909F908F907F906F9039
:103FD0005F904F903F902F900895EF92FF920F9334
:103FE0001F93DF93CF93CDB7DEB76F970FB6F894DB
:103FF000DEBF0FBECDBF7C018C01025B1F4F805B1B
:104000009F4FF8019183808328E832E0E20EF31E8F
:1040100021E030E0F701219331937F01118210827A
:1040200026E73DEFE20EF31E049640E050E060E02C
:1040300070E00E94806FF80120813181DE011596C9
:10404000F90134968BE101900D928150E1F7F9016D
:10405000828193819C838B8387E894E09A83898310
:10406000C70165E172E08E010F5F1F4FA801CFDD30
:10407000C8010E947114F701E657FD4F80819181BC
:104080006F960FB6F894DEBF0FBECDBFCF91DF9114
:104090001F910F91FF90EF900895EF92FF920F9371
:1040A0001F93DF93CF93CDB7DEB76F970FB6F8941A
:1040B000DEBF0FBECDBF7C018C01025B1F4F805B5A
:1040C0009F4FF8019183808328E832E0E20EF31ECF
:1040D00022E030E0F7013183208328E73DEFE20E54
:1040E000F31EF701E657FD4F60831182049640E00E
:1040F00050E060E070E00E94806FF8012081318123
:10410000DE011596F90134968BE101900D928150F4
:10411000E1F7F901828193819C838B8387E894E0A6
:104120009A838983C70165E172E08E010F5F1F4F9B
:10413000A8016DDDC8010E9471146F960FB6F89446
:10414000DEBF0FBECDBFCF91DF911F910F91FF90CA
:10415000EF900895EF92FF920F931F93DF93CF9309
:10416000CDB7DEB76F970FB6F894DEBF0FBECDBFE9
:104170007C0188E892E0E80EF91EF70111821082B6
:1041800088E79DEFE80EF91E87010D5C1F4FC801FF
:1041900040E050E060E070E00E94806FDE01159624
:1041A000F8018BE101900D928150E1F7F70181A9AF
:1041B00092A99C838B8387E894E09A838983C701C3
:1041C00065E172E08E010F5F1F4FA80120DDC8017D
:1041D0000E9471146F960FB6F894DEBF0FBECDBF6C
:1041E000CF91DF911F910F91FF90EF9008950F9362
:1041F0001F93CF93DF93DC01D3961C92D397D6966F
:104200001C92D697D2961C921E92D19787E894E082
:10421000D0969C938E939F97AC5ABF4F1C92139647
:104220001C92A755B040FD01E05BFF4FAE5ABF4F57
:1042300011961C921E92A255B04091838083ED018D
:10424000C159DF4FFE0120E030E0482F1482178271
:104250001382128240839183215E3F4F7F9681E0DB
:104260002633380799F7A855BE4F89E18C931396EA
:104270001C9258961C921B961C9213961C92A15D40
:10428000B140FD01E653FE4FA453BE4F11961C9260
:104290001E9240839183A155BF4F1D921D921D9286
:1042A0001C92139718961D921D921D921C921397A3
:1042B000A358B24012961C92129713961C92139711
:1042C0001C9211961C9211978D0101581D4FF801F7
:1042D0001082118212821382AB55BE4F11961C922E
:1042E0001E92AC5BBF4F1C92FE01C9011192019757
:1042F000E9F7A256BF4F81E08C93A758B2409E9633
:104300001C921E929D970E9439C968577C4E8F4F10
:104310009F4FF8016083718382839383DF91CF91F4
:104320001F910F910895DF93CF93CDB7DEB72A97F2
:104330000FB6F894DEBF0FBECDBF809116029091EC
:104340001702A0911802B09119028B839C83AD8350
:10435000BE83FE01339624E630E08081F999FECFDA
:104360001FBA32BD21BD80BD0FB6F894FA9AF99AF2
:104370000FBE2F5F3F4F2836310511F03196EDCF3C
:10438000E0E5FAE08081F999FECF1FBA32BD21BD88
:1043900080BD0FB6F894FA9AF99A0FBE2F5F3F4F7F
:1043A0002837310511F03196EDCFE0E4FAE0808155
:1043B000F999FECF1FBA32BD21BD80BD0FB6F8946A
:1043C000FA9AF99A0FBE2F5F3F4F2838310511F046
:1043D0003196EDCFE0E6FAE08081F999FECF1FBA81
:1043E00032BD21BD80BD0FB6F894FA9AF99A0FBE7E
:1043F0002F5F3F4F2839310511F03196EDCFE4E7BB
:10440000FAE08081F999FECF1FBA32BD21BD80BD8F
:104410000FB6F894FA9AF99A0FBE2F5F3F4F2C39D6
:10442000310511F03196EDCFE8E7FAE08081F99996
:10443000FECF1FBA32BD21BD80BD0FB6F894FA9AE7
:10444000F99A0FBE2F5F3F4F203A310511F0319698
:10445000EDCFE0E7FAE08081F999FECF1FBA32BDD7
:1044600021BD80BD0FB6F894FA9AF99A0FBE2F5F5E
:104470003F4F243A310511F03196EDCFE8E8FAE0EC
:104480008081F999FECF1FBA32BD21BD80BD0FB624
:10449000F894FA9AF99A0FBE2F5F3F4F283A3105E8
:1044A00011F03196EDCFECE3FAE08081F999FECF7F
:1044B0001FBA32BD21BD80BD0FB6F894FA9AF99AA1
:1044C0000FBE2F5F3F4F2C3A310511F03196EDCFE3
:1044D000ECE7FAE08081F999FECF1FBA32BD21BD29
:1044E00080BD0FB6F894FA9AF99A0FBE2F5F3F4F2E
:1044F000203B310511F03196EDCFE0E8FAE0808104
:10450000F999FECF1FBA32BD21BD80BD0FB6F89418
:10451000FA9AF99A0FBE2F5F3F4F243B310511F0F5
:104520003196EDCFE4E8FAE08081F999FECF1FBA29
:1045300032BD21BD80BD0FB6F894FA9AF99A0FBE2C
:104540002F5F3F4F283B310511F03196EDCFEDE164
:10455000F8E08081F999FECF1FBA32BD21BD80BD40
:104560000FB6F894FA9AF99A0FBE2F5F3F4F243C8A
:10457000310511F03196EDCFE9E2F8E08081F9994B
:10458000FECF1FBA32BD21BD80BD0FB6F894FA9A96
:10459000F99A0FBE2F5F3F4F203D310511F0319644
:1045A000EDCFEEEBF3E08081F999FECF1FBA32BD7B
:1045B00021BD80BD0FB6F894FA9AF99A0FBE2F5F0D
:1045C0003F4F243D310511F03196EDCFE2ECF3E0A1
:1045D0008081F999FECF1FBA32BD21BD80BD0FB6D3
:1045E000F894FA9AF99A0FBE2F5F3F4F283D310594
:1045F00011F03196EDCFE6ECF3E08081F999FECF32
:104600001FBA32BD21BD80BD0FB6F894FA9AF99A4F
:104610000FBE2F5F3F4F2C3D310511F03196EDCF8E
:10462000ECE3F2E18081F999FECF1FBA32BD21BDE2
:1046300080BD0FB6F894FA9AF99A0FBE2F5F3F4FDC
:104640002E3D310511F03196EDCFEEE3F2E18081A0
:10465000F999FECF1FBA32BD21BD80BD0FB6F894C7
:10466000FA9AF99A0FBE2F5F3F4F203E310511F0A5
:104670003196EDCFE0E4F2E18081F999FECF1FBAE7
:1046800032BD21BD80BD0FB6F894FA9AF99A0FBEDB
:104690002F5F3F4F223E310511F03196EDCFE2E41E
:1046A000F2E18081F999FECF1FBA32BD21BD80BDF4
:1046B0000FB6F894FA9AF99A0FBE2F5F3F4F243E37
:1046C000310511F03196EDCFE4E4F2E18081F99902
:1046D000FECF1FBA32BD21BD80BD0FB6F894FA9A45
:1046E000F99A0FBE2F5F3F4F263E310511F03196EC
:1046F000EDCFE6E4F2E18081F999FECF1FBA32BD39
:1047000021BD80BD0FB6F894FA9AF99A0FBE2F5FBB
:104710003F4F283E310511F03196EDCFE8E3F8E048
:104720008081F999FECF1FBA32BD21BD80BD0FB681
:10473000F894FA9AF99A0FBE2F5F3F4F2C3E31053D
:1047400011F03196EDCFE8EEF3E08081F999FECFDC
:104750001FBA32BD21BD80BD0FB6F894FA9AF99AFE
:104760000FBE2F5F3F4F203F310511F03196EDCF47
:10477000ECEEF3E08081F999FECF1FBA32BD21BD86
:1047800080BD0FB6F894FA9AF99A0FBE2F5F3F4F8B
:10479000243F310511F03196EDCFE0EFF3E0808159
:1047A000F999FECF1FBA32BD21BD80BD0FB6F89476
:1047B000FA9AF99A0FBE2F5F3F4F283F310511F04B
:1047C0003196EDCF80E290E09A838983FE013196A5
:1047D0008081F999FECF1FBA32BD21BD80BD0FB6D1
:1047E000F894FA9AF99A0FBE293F310521F03196D3
:1047F00029EF30E0EDCF80911A0290911B02A09139
:104800001C02B0911D028F839887A987BA87FE0189
:10481000379684E690E02081F999FECF1FBA92BDC9
:1048200081BD20BD0FB6F894FA9AF99A0FBE87366B
:10483000910519F001963196EECFECE2F3E09491F8
:1048400008C08091C00085FFFCCF9093C6003196D0
:1048500094919923B1F7E0ECF5E0949108C0809130
:10486000C00085FFFCCF9093C600319694919923A8
:10487000B1F78091C00085FFFCCF8AE08093C6002D
:104880002A960FB6F894DEBF0FBECDBFCF91DF9151
:104890000895DF93CF93CDB7DEB7E0970FB6F894C6
:1048A000DEBF0FBECDBFDE011196E7E3F4E080E18D
:1048B00001900D928150E1F7DE015196E7E2F4E0BC
:1048C00080E101900D928150E1F7DE019196E7E1E0
:1048D000F4E080E101900D928150E1F789819A81A5
:1048E000AB81BC818093500A9093510AA093520AE5
:1048F000B093530A89899A89AB89BC898093400A0D
:104900009093410AA093420AB093430A89A19AA1C5
:10491000ABA1BCA18093600A9093610AA093620A44
:10492000B093630A8D819E81AF81B8858093540ACC
:104930009093550AA093560AB093570A8D899E8981
:10494000AF89B88D8093440A9093450AA093460A94
:10495000B093470A8DA19EA1AFA1B8A58093640A28
:104960009093650AA093660AB093670A89859A8531
:10497000AB85BC858093580A9093590AA0935A0A34
:10498000B0935B0A898D9A8DAB8DBC8D8093480A5C
:104990009093490AA0934A0AB0934B0A89A59AA515
:1049A000ABA5BCA58093680A9093690AA0936A0A94
:1049B000B0936B0A8D859E85AF85B88980935C0A1C
:1049C00090935D0AA0935E0AB0935F0A8D8D9E8DD1
:1049D000AF8DB8A180934C0A90934D0AA0934E0AD4
:1049E000B0934F0A8DA59EA5AFA5B8A980936C0A78
:1049F00090936D0AA0936E0AB0936F0A0E94295B90
:104A000080E090E8ABEBB4E48093740A9093750A6D
:104A1000A093760AB093770A80E090E0AEEBB3E41F
:104A20008093780A9093790AA0937A0AB0937B0ACC
:104A300020E030E040E050E02093700A3093710AAB
:104A40004093720A5093730A80E29EE4A0E0B0E0C3
:104A500080933C0A90933D0AA0933E0AB0933F0A8C
:104A60002093880A3093890A40938A0A50938B0ACC
:104A700080E090E0A0EAB1E480937C0A90937D0A04
:104A8000A0937E0AB0937F0A8093800A9093810A54
:104A9000A093820AB093830A80E090E0A0EAB0E499
:104AA0008093840A9093850AA093860AB093870A1C
:104AB0002093250830932608409327085093280810
:104AC0002093210830932208409323085093240810
:104AD00020931D0830931E0840931F085093200810
:104AE00020933108309332084093330850933408B0
:104AF00020932D0830932E0840932F0850933008B0
:104B00002093290830932A0840932B0850932C08AF
:104B100084EA90EFA8EBB2E48093BE039093BF03C6
:104B2000A093C003B093C1038DEC9CE4A7E3B3E46E
:104B30008093C2039093C303A093C403B093C503AF
:104B400080E090E0A8E4B3E48093C6039093C703A9
:104B5000A093C803B093C90364EA70EF88EB92E4B2
:104B60002DEC3CE447E353E40E94432F8CED90E0AE
:104B700090933D1280933C1286E490E090933F1214
:104B800080933E122FEF30E0309341122093401279
:104B900084E091E0909343128093421284E690E087
:104BA00090934512809344123093471220934612FB
:104BB0008CE59FE8AEE7B1E48093E8039093E903C6
:104BC000A093EA03B093EB0364EA70E78DE39FE3FD
:104BD0000E94BF856093EC037093ED038093EE0316
:104BE0009093EF0365E87BEE89EA92E40E94CB851F
:104BF0006093F0037093F1038093F2039093F303B7
:104C00000E94868580E090E0A0E8BFE38093F403F3
:104C10009093F503A093F603B093F703ECE2F3E06F
:104C2000949108C08091C00085FFFCCF9093C6008E
:104C3000319694919923B1F7E2E3F3E0949108C09F
:104C40008091C00085FFFCCF9093C600319694916F
:104C50009923B1F78091C00085FFFCCF8AE0809353
:104C6000C600E0960FB6F894DEBF0FBECDBFCF9161
:104C7000DF9108950F931F93DF93CF93CDB7DEB7E6
:104C80002A970FB6F894DEBF0FBECDBF80911A02EF
:104C900090911B02A0911C02B0911D028F839887F6
:104CA000A987BA87FE01339604E610E0F999FECF92
:104CB00012BD01BDF89A80B580830F5F1F4F083683
:104CC000110511F03196F2CFCE010796BE016D5F4E
:104CD0007F4F43E050E00E946B11009709F0D8C16C
:104CE000E0E5FAE0F999FECF12BD01BDF89A80B572
:104CF00080830F5F1F4F0837110511F03196F2CFF7
:104D0000E0E4FAE0F999FECF12BD01BDF89A80B552
:104D100080830F5F1F4F0838110511F03196F2CFD5
:104D2000E0E6FAE0F999FECF12BD01BDF89A80B530
:104D300080830F5F1F4F0839110511F03196F2CFB4
:104D40000E94295BE4E7FAE0F999FECF12BD01BDAC
:104D5000F89A80B580830F5F1F4F0C39110511F051
:104D60003196F2CFE8E7FAE0F999FECF12BD01BD26
:104D7000F89A80B580830F5F1F4F003A110511F03C
:104D80003196F2CFE0E7FAE0F999FECF12BD01BD0E
:104D9000F89A80B580830F5F1F4F043A110511F018
:104DA0003196F2CFE8E8FAE0F999FECF12BD01BDE5
:104DB000F89A80B580830F5F1F4F083A110511F0F4
:104DC0003196F2CFECE3FAE0F999FECF12BD01BDC6
:104DD000F89A80B580830F5F1F4F0C3A110511F0D0
:104DE0003196F2CFECE7FAE0F999FECF12BD01BDA2
:104DF000F89A80B580830F5F1F4F003B110511F0BB
:104E00003196F2CFE0E8FAE0F999FECF12BD01BD8C
:104E1000F89A80B580830F5F1F4F043B110511F096
:104E20003196F2CFE4E8FAE0F999FECF12BD01BD68
:104E3000F89A80B580830F5F1F4F083B110511F072
:104E40003196F2CFEDE1F8E0F999FECF12BD01BD48
:104E5000F89A80B580830F5F1F4F043C110511F055
:104E60003196F2CFE9E2F8E0F999FECF12BD01BD2B
:104E7000F89A80B580830F5F1F4F003D110511F038
:104E80003196F2CFEEEBF3E0F999FECF12BD01BD02
:104E9000F89A80B580830F5F1F4F043D110511F014
:104EA0003196F2CFE2ECF3E0F999FECF12BD01BDED
:104EB000F89A80B580830F5F1F4F083D110511F0F0
:104EC0003196F2CFE6ECF3E0F999FECF12BD01BDC9
:104ED000F89A80B580830F5F1F4F0C3D110511F0CC
:104EE0003196F2CFECE3F2E1F999FECF12BD01BDAC
:104EF000F89A80B580830F5F1F4F0E3D110511F0AA
:104F00003196F2CFEEE3F2E1F999FECF12BD01BD89
:104F1000F89A80B580830F5F1F4F003E110511F096
:104F20003196F2CFE0E4F2E1F999FECF12BD01BD76
:104F3000F89A80B580830F5F1F4F023E110511F074
:104F40003196F2CFE2E4F2E1F999FECF12BD01BD54
:104F5000F89A80B580830F5F1F4F043E110511F052
:104F60003196F2CFE4E4F2E1F999FECF12BD01BD32
:104F7000F89A80B580830F5F1F4F063E110511F030
:104F80003196F2CFE6E4F2E1F999FECF12BD01BD10
:104F9000F89A80B580830F5F1F4F083E110511F00E
:104FA0003196F2CFE8E3F8E0F999FECF12BD01BDEA
:104FB000F89A80B580830F5F1F4F0C3E110511F0EA
:104FC0003196F2CFE8EEF3E0F999FECF12BD01BDC4
:104FD000F89A80B580830F5F1F4F003F110511F0D5
:104FE0003196F2CFECEEF3E0F999FECF12BD01BDA0
:104FF000F89A80B580830F5F1F4F043F110511F0B1
:105000003196F2CFE0EFF3E0F999FECF12BD01BD8A
:10501000F89A80B580830F5F1F4F083F110511F08C
:105020003196F2CFFE013196F999FECF12BD01BD46
:10503000F89A80B58083093F110521F0319609EF78
:1050400010E0F2CF0E948685ECE2F3E0949108C074
:105050008091C00085FFFCCF9093C600319694915B
:105060009923B1F7E4E5F3E0949108C08091C00082
:1050700085FFFCCF9093C600319694919923B1F7A8
:105080008091C00085FFFCCF8AE08093C60001C0FC
:1050900000DC2A960FB6F894DEBF0FBECDBFCF91CD
:1050A000DF911F910F910895CF93DF93CCE2D3E06E
:1050B000FE01949108C08091C00085FFFCCF9093C1
:1050C000C600319694919923B1F7E0EBF5E0949105
:1050D00008C08091C00085FFFCCF9093C600319638
:1050E00094919923B1F78091C00085FFFCCF8AE0AD
:1050F0008093C600FE019491ECE2F3E008C0809139
:10510000C00085FFFCCF9093C600319694919923FF
:10511000B1F74091500A5091510A6091520A709132
:10512000530A88EA95E00E9454374091540A5091FE
:10513000550A6091560A7091570A85EA95E00E94D7
:1051400054374091580A5091590A60915A0A709107
:105150005B0A82EA95E00E94543740915C0A5091C4
:105160005D0A60915E0A70915F0A8FE995E00E9486
:105170005437EEE1F2E007C08091C00085FFFCCF1C
:1051800031969093C60090819923B1F78091C00029
:1051900085FFFCCF8AE08093C600FE019491ECE28B
:1051A000F3E008C08091C00085FFFCCF9093C6005B
:1051B000319694919923B1F7E5E8F5E0949108C010
:1051C0008091C00085FFFCCF9093C60031969491EA
:1051D0009923B1F78091C00085FFFCCF8AE08093CE
:1051E000C600FE019491ECE2F3E008C08091C0009B
:1051F00085FFFCCF9093C600319694919923B1F727
:105200004091400A5091410A6091420A7091430ACC
:105210008CE795E00E9454374091440A5091450A2A
:105220006091460A7091470A89E795E00E945437D9
:105230004091480A5091490A60914A0A70914B0A7C
:1052400086E795E00E94543740914C0A50914D0AF0
:1052500060914E0A70914F0A83E795E00E9454379F
:10526000EEE1F2E007C08091C00085FFFCCF3196EF
:105270009093C60090819923B1F78091C00085FF7B
:10528000FCCF8AE08093C600FE019491ECE2F3E04B
:1052900008C08091C00085FFFCCF9093C600319676
:1052A00094919923B1F7E5E5F5E0949108C08091D8
:1052B000C00085FFFCCF9093C6003196949199234E
:1052C000B1F78091C00085FFFCCF8AE08093C600D3
:1052D000FE019491ECE2F3E008C08091C00085FFEC
:1052E000FCCF9093C600319694919923B1F74091E9
:1052F000600A5091610A6091620A7091630A8CE4BD
:1053000095E00E9467374091640A5091650A609168
:10531000660A7091670A89E495E00E9467374091B8
:10532000680A5091690A60916A0A70916B0A86E472
:1053300095E00E94673740916C0A50916D0A609128
:105340006E0A70916F0A83E495E00E946737EEE180
:10535000F2E007C08091C00085FFFCCF31969093AA
:10536000C60090819923B1F78091C00085FFFCCFE2
:105370008AE08093C600FE019491ECE2F3E008C05D
:105380008091C00085FFFCCF9093C6003196949128
:105390009923B1F7EEE0F5E0949108C08091C00048
:1053A00085FFFCCF9093C600319694919923B1F775
:1053B0008091C00085FFFCCF8AE08093C600FE018B
:1053C0009491ECE2F3E008C08091C00085FFFCCF2F
:1053D0009093C600319694919923B1F74091740A45
:1053E0005091750A6091760A7091770A85E095E090
:1053F0000E9454374091780A5091790A60917A0A54
:1054000070917B0A82E095E00E945437EEE1F2E071
:1054100007C08091C00085FFFCCF31969093C600F5
:1054200090819923B1F78091C00085FFFCCF8AE07D
:105430008093C600FE019491ECE2F3E008C08091F5
:10544000C00085FFFCCF9093C600319694919923BC
:10545000B1F7EFE4F4E0949108C08091C00085FFBB
:10546000FCCF9093C600319694919923B1F7809127
:10547000C00085FFFCCF8AE08093C600FE019491B6
:10548000ECE2F3E008C08091C00085FFFCCF909370
:10549000C600319694919923B1F74091700A5091CA
:1054A000710A6091720A7091730A86E494E00E9416
:1054B00054374091880A5091890A60918A0A709104
:1054C0008B0A83E494E00E94543740913C0A509147
:1054D0003D0A60913E0A70913F0A80E494E00E9488
:1054E000673740917C0A50917D0A60917E0A7091E5
:1054F0007F0A8DE394E00E9454374091800A5091D6
:10550000810A6091820A7091830A8AE394E00E9482
:1055100054374091840A5091850A6091860A7091AF
:10552000870A87E394E00E945437EEE1F2E007C077
:105530008091C00085FFFCCF31969093C60090818A
:105540009923B1F78091C00085FFFCCF8AE080935A
:10555000C600FE019491ECE2F3E008C08091C00027
:1055600085FFFCCF9093C600319694919923B1F7B3
:10557000E5E2F4E0949108C08091C00085FFFCCF83
:105580009093C600319694919923B1F78091C00011
:1055900085FFFCCF8AE08093C600FE019491ECE287
:1055A000F3E008C08091C00085FFFCCF9093C60057
:1055B000319694919923B1F740911D0850911E089E
:1055C00060911F08709120088CE194E00E9454378C
:1055D000409121085091220860912308709124087D
:1055E00089E194E00E9454374091250850912608A3
:1055F000609127087091280886E194E00E94543752
:10560000EEE1F2E007C08091C00085FFFCCF31964B
:105610009093C60090819923B1F78091C00085FFD7
:10562000FCCF8AE08093C600FE019491ECE2F3E0A7
:1056300008C08091C00085FFFCCF9093C6003196D2
:1056400094919923B1F7ECEFF3E0949108C0809125
:10565000C00085FFFCCF9093C600319694919923AA
:10566000B1F78091C00085FFFCCF8AE08093C6002F
:10567000FE019491ECE2F3E008C08091C00085FF48
:10568000FCCF9093C600319694919923B1F7409145
:10569000290850912A0860912B0870912C0883EFFB
:1056A00093E00E94543740912D0850912E0860914C
:1056B0002F087091300880EF93E00E94543740919A
:1056C00031085091320860913308709134088DEEA2
:1056D00093E00E945437EEE1F2E007C08091C000F1
:1056E00085FFFCCF31969093C60090819923B1F746
:1056F0008091C00085FFFCCF8AE08093C600FE0148
:105700009491ECE2F3E008C08091C00085FFFCCFEB
:105710009093C600319694919923B1F7EBE9F3E0A9
:10572000949108C08091C00085FFFCCF9093C60083
:10573000319694919923B1F78091C00085FFFCCFF9
:105740008AE08093C600FE019491ECE2F3E008C089
:105750008091C00085FFFCCF9093C6003196949154
:105760009923B1F74091C2035091C3036091C403E0
:105770007091C50382E993E00E9454374091BE03C3
:105780005091BF036091C0037091C1038FE893E013
:105790000E9454374091C6035091C7036091C803DB
:1057A0007091C9038CE893E00E945437EEE1F2E077
:1057B00007C08091C00085FFFCCF31969093C60052
:1057C00090819923B1F78091C00085FFFCCF8AE0DA
:1057D0008093C600FE019491ECE2F3E008C0809152
:1057E000C00085FFFCCF9093C60031969491992319
:1057F000B1F7EEE7F3E0949108C08091C00085FF17
:10580000FCCF9093C600319694919923B1F7809183
:10581000C00085FFFCCF8AE08093C600FE01949112
:10582000ECE2F3E008C08091C00085FFFCCF9093CC
:10583000C600319694919923B1F74091E8035091B5
:10584000E9036091EA037091EB0384E793E00E941F
:1058500054376091EC037091ED038091EE039091C9
:10586000EF030E94C585AB01BC0181E793E00E9474
:1058700054376091F0037091F1038091F20390919D
:10588000F3030E94D185AB01BC018EE693E00E9438
:105890005437EEE1F2E007C08091C00085FFFCCFF5
:1058A00031969093C60090819923B1F78091C00002
:1058B00085FFFCCF8AE08093C600DF91CF910895E9
:1058C0001F920F920FB60F920BB60F9211242F93C7
:1058D0003F934F938F939F93EF93FF934091C60015
:1058E000E0917405F091750531969F012F77307026
:1058F000319780917605909177052817390739F00F
:10590000EC50FB4F40833093750520937405FF9155
:10591000EF919F918F914F913F912F910F900BBEDF
:105920000F900FBE0F901F9018959A01AB01203079
:1059300081EE380780E0480780E0580749F182E0AF
:105940008093C00060E079E08DE390E00E94E7D4AE
:105950002150304040405040CA01B90122E030E0BF
:1059600040E050E00E94E7D43093C5002093C4008B
:105970008091C10080618093C1008091C1008860E6
:105980008093C1008091C10080688093C100089518
:105990001092C00020E130E0E7CF209176053091F1
:1059A000770580917405909175058217930719F416
:1059B0002FEF3FEF0EC0F901EC50FB4F80812F5FBE
:1059C0003F4F2F7730703093770520937605282F3F
:1059D00030E0C90108958091760590917705909304
:1059E000750580937405089508952F923F924F9204
:1059F0005F926F927F928F929F92AF92BF92CF925F
:105A0000DF92EF92FF920F931F93DF93CF93CDB767
:105A1000DEB7A0970FB6F894DEBF0FBECDBF1C0156
:105A20006A017B01411551056105710541F440E3AF
:105A300050E060E070E020E030E08BD055C088247A
:105A400099245401422E55246624772401E010E065
:105A50000C0F1D1F080D191DC701B601A3019201EE
:105A60000E94C5D4F80160830894811C911CA11C7C
:105A7000B11CC701B601A30192010E94C5D4C9019E
:105A8000DA016C017D01C114D104E104F104F1F6E5
:105A900081E0E82EF12CEC0EFD1EE80CF91C3E0115
:105AA0000894611C711CD501C4010197A109B109B9
:105AB0006C01C818D90815C0F601EE0DFF1D408114
:105AC0004A3010F4405D01C0495C552747FD5095B0
:105AD000652F752FC10120E030E03BD00894E1082C
